:1000000061C0000086C0000084C0000082C0000003
:1000100080C000007EC000007CC000007AC00000EC
:1000200078C0000076C0000074C0000072C00000FC
:1000300070C00000F9C400006CC000006AC000007D
:100040000C94FA0B66C000000C947E0E0C94B00E5B
:1000500060C000005EC000005CC000005AC000002C
:1000600058C0000056C00000000000080002010057
:100070000003040700000000000000000102040863
:100080001020408001020408102001020408102002
:10009000040404040404040402020202020203032E
:1000A00003030303000000002300260029000000D2
:1000B0000000250028002B0000000000240027007D
:1000C0002A00D50E11241FBECFEFD8E0DEBFCDBF72
:1000D00011E0A0E0B1E0E2EBFEE102C005900D927C
:1000E000A63AB107D9F723E0A6EAB1E001C01D9214
:1000F000A530B207E1F710E0C2E6D0E004C02197D6
:10010000FE010E94510FC136D107C9F729D50C94C1
:10011000570F76CFCF93DF93882349F0EB018150BF
:100120000E947F0C99838883DF91CF910895FB0112
:1001300011821082F9CF0F931F938B019C0183E0F2
:1001400036952795179507958A95D1F70A551E4F2D
:10015000462F477021E030E0F90102C0EE0FFF1F8B
:100160004A95E2F7AF01F80120812423CB010196E3
:10017000211102C090E080E01F910F9108950F932C
:100180001F938B019C0183E0369527951795079562
:100190008A95D1F7677081E090E001C0880F6A9579
:1001A000EAF7F801EA55FE4F2081452B31F480959E
:1001B000822380831F910F910895822BFACFCF92D3
:1001C000DF92EF92FF92CF93DF936B017C0160E0AF
:1001D0008EE0C816D104E104F10490F48EE08C0D99
:1001E0000E94C30CE6012196AE01C701B601C7DF2C
:1001F000CE01DF91CF91FF90EF90DF90CF900895E7
:100200008C2DEECF882341F08150682F70E090E074
:1002100080E050E040E0B3CF0895611102C00C943B
:10022000C30C6130E1F362E0FACF662319F061E0BC
:100230000C94FF0C60E0FCCF0E942C0D21E0019794
:1002400009F020E0822F0895FC0191E04091B50172
:100250005091B6016091B7017091B801452B462BC2
:10026000472B09F090E0918308958F929F92AF926F
:10027000BF92CF92DF92EF92FF920F931F93CF9393
:10028000DF93CDB7DEB72D970FB6F894DEBF0FBE64
:10029000CDBF8091B5019091B601A091B701B09109
:1002A000B8010196A11DB11D85309105A105B105CB
:1002B00008F0EBC18093B5019093B601A093B7010C
:1002C000B093B801C0901701D0901801E0901901C7
:1002D000F0901A01A701960160919D0270919E0213
:1002E00080919F029091A0020E94100A882341F001
:1002F000C0929D02D0929E02E0929F02F092A002D4
:1003000082E09ADF8093EA02C0900701D090080152
:10031000E0900901F0900A01A70196016091910215
:100320007091920280919302909194020E94100A1F
:10033000882341F0C0929102D0929202E0929302FF
:10034000F09294026FE070E080E090E0F4DE909331
:10035000900280938F0243E050E0BE01655F7F4FC3
:10036000D9DE6B857C8590E080E00E94400A209178
:100370001B0130911C0140911D0150911E010E94F2
:10038000970B20911F013091200140912101509144
:1003900022010E94970B69837A838B839C83C09090
:1003A0000B01D0900C01E0900D01F0900E01A7011F
:1003B00096016091850270918602809187029091EA
:1003C00088020E94100A882341F0C0928502D092D0
:1003D0008602E0928702F092880260E170E080E09D
:1003E00090E0A9DE909384028093830243E050E082
:1003F000BE01655F7F4F8EDE6B857C8590E080E07F
:100400000E94400A2091230130912401409125014E
:10041000509126010E94970B2091270130912801CD
:100420004091290150912A010E94970B0E947D0A58
:100430006B017C0171D7811131C1C701B60129D788
:1004400081112CC120E030E040E853E4C701B6013F
:100450000E94970A6B017C0120E030E0A901E0D7FF
:1004600087FF1FC1C701B6019058DED76195062EE0
:10047000000C770B7093E9026093E802C0900F01C3
:10048000D0901001E0901101F0901201A7019601A7
:100490006091790270917A0280917B0290917C0246
:1004A000BFD7882341F0C0927902D0927A02E092BD
:1004B0007B02F0927C0261E170E080E090E03BDE44
:1004C000909378028093770243E050E0BE01655F2D
:1004D0007F4F20DE6B857C8590E080E0D1D7209136
:1004E0002B0130912C0140912D0150912E010E9441
:1004F000970B20912F0130913001409131015091A3
:1005000032010E94970B20913301309134014091C8
:1005100035015091360120D76093E4027093E502D3
:100520008093E6029093E702C0901301D0901401EB
:10053000E0901501F0901601A701960160916D02FF
:1005400070916E0280916F029091700269D788233A
:1005500041F0C0926D02D0926E02E0926F02F09272
:10056000700262E170E080E090E0E5DD90936C0263
:1005700080936B0243E050E0BE01655F7F4FCADDB0
:100580006B857C8590E080E07BD7209137013091AE
:1005900038014091390150913A010E94970B209106
:1005A0003B0130913C0140913D0150913E010E9440
:1005B000970B6D837E838F83988788ED92E09F935E
:1005C0008F9322ED822E22E0922ECE010D965C01B9
:1005D00004976C0108977C018E010B5F1F4F24EE7E
:1005E00032E048EE52E0BC018AEE92E0F4D211E033
:1005F00029813A814B815C816091000170910101F8
:1006000080910201909103010BD718160CF410E0B1
:10061000612F88E00ADE60910401062E000C770B42
:1006200089859A8568237923769567957695679568
:1006300089E0FBDD60910501062E000C770B8985B2
:100640009A8568237923769567958AE0EEDD69853A
:100650008091060168238BE0E8DD6D858CE0E5DDA7
:100660000F900F902D960FB6F894DEBF0FBECDBF42
:10067000DF91CF911F910F91FF90EF90DF90CF907E
:10068000BF90AF909F908F9008951092B5011092F7
:10069000B6011092B7011092B80114CEC12CD12C22
:1006A0007601C701B601C0D6E2CE61E08091D102E9
:1006B000811160E06093D1028DE0B7CDAF92BF921F
:1006C000CF92DF92EF92FF921F93CF93DF9384E05C
:1006D00090E0A8D562EE72E08FEA91E09FD5C5E682
:1006E000D2E080E0A82E81E0B82EF50187AD80939E
:1006F000D10288ED92E06BD218AAF5018789908D1E
:10070000A18DB28D88AF99AFAAAFBBAFC12CD12C50
:100710007601C394C9AADAAAEBAAFCAA60E082E037
:100720007CDD11E01DAB1CA2F50187819085A185C0
:10073000B2858CA79DA7AEA7BFA7CDA2DEA2EFA2D0
:10074000F8A66FE070E080E090E039DD9BA78AA713
:1007500019A7188EF50183859485A585B68588A38C
:1007600099A3AAA3BBA3C98EDA8EEB8EFC8E60E19F
:1007700070E080E090E023DD9F8F8E8F1D8F1C86C0
:10078000F50187859089A189B2898C8B9D8BAE8B71
:10079000BF8BCD86DE86EF86F88A61E170E080E06F
:1007A00090E00DDD9B8B8A8B198B1882F501838974
:1007B0009489A589B68988879987AA87BB87C982C2
:1007C000DA82EB82FC8262E170E080E090E0F7DCAC
:1007D0009F838E831D831092C902C092CA02D09259
:1007E000CB02E092CC02F092CD0261E088E015DD10
:1007F0001093CE021092C102C092C202D092C302E4
:10080000E092C402F092C50261E089E006DD109337
:10081000C6021092B902C092BA02D092BB02E09214
:10082000BC02F092BD0261E08AE0F7DC1093BE02E8
:100830001092A902C092AA02D092AB02E092AC023E
:10084000F092AD0261E08BE0E8DC1093AE021CAEEA
:10085000C092A202D092A302E092A402F092A5025A
:1008600061E08CE0DADC1093A6021092B102C09233
:10087000B202D092B302E092B402F092B50261E00B
:100880008DE0CBDC1093B602DF91CF911F91FF90EA
:10089000EF90DF90CF90BF90AF9008958091950238
:1008A000811103C081E080939502809189028111BA
:1008B0001DC081E08093890280918A0290918B0211
:1008C000A0918C02B0918D020197A105B10571F440
:1008D00080918E02882351F06FE070E080E090E01C
:1008E0002ADC9093900280938F028CDC80917D02B1
:1008F00081111DC081E080937D0280917E029091E4
:100900007F02A0918002B09181020197A105B105FB
:1009100071F480918202882351F060E170E080E000
:1009200090E009DC90938402809383026BDC8091D9
:10093000710281111DC081E0809371028091720269
:1009400090917302A0917402B09175020197A10574
:10095000B10571F480917602882351F061E170E075
:1009600080E090E0E8DB90937802809377024ADCA5
:100970008091650281111DC081E0809365028091A4
:10098000660290916702A0916802B0916902019796
:10099000A105B10571F480916A02882351F062E1EA
:1009A00070E080E090E0C7DB90936C0280936B0274
:1009B00029DC8091C902811103C081E08093C902C2
:1009C0008091C102811103C081E08093C1028091B6
:1009D000B902811103C081E08093B9028091A9021C
:1009E000811103C081E08093A9028091A10281114D
:1009F00003C081E08093A1028091B102811103C004
:100A000081E08093B102089526E030E040E855E2AD
:100A100060E070E090E080E000C0892B21F488EC79
:100A200091E00C941E0E08951F920F920FB60F9234
:100A300011242F933F934F935F936F937F938F93E3
:100A40009F93AF93BF93EF93FF9386E997EE9093B5
:100A500085008093840032D0FF91EF91BF91AF91D8
:100A60009F918F917F916F915F914F913F912F91C6
:100A70000F900FBE0F901F90189586E997EE9093F8
:100A8000850080938400AFE6B0E08C918E7F8C93DC
:100A9000E0E8F0E080818C7F8083E1E8F0E0808115
:100AA000877E808380818460808380818C7F808347
:100AB0008C9181608C93089581E00895CF93DF93AA
:100AC00000D0CDB7DEB78091BB0191E0980F909335
:100AD000BB01882369F021E030E03093BE01209310
:100AE000BD018093BB010F900F90DF91CF910895CE
:100AF000CE010196A9DB7894B8DBF8948091BB0114
:100B000081508093BB018A81882389F08091BA014A
:100B100091E0980F9093BA01882349F021E030E0EA
:100B20003093BE012093BD018093BA01DCCF809148
:100B3000BA018823C1F28091BC018111D4CF81E038
:100B40008093BC017894B1DDF8948091BA01815012
:100B50008093BA018091BC0181508093BC01C3CFC6
:100B6000CF93DF931092EC021092EB028DD64CDF04
:100B7000C0919201D0919301198218829FDDF8945F
:100B80007CDF81E028813981232B09F080E080938C
:100B9000EB02789478948091EB02811107C07EDE9D
:100BA000F89490E080E0DF91CF91089581E0288172
:100BB0003981232B09F480E08093EC029091EC02C0
:100BC00081E0911180E08093EB0276DFE4CF24E0B6
:100BD000FC01208708952F923F924F925F926F926F
:100BE0007F928F929F92AF92BF92CF92DF92EF92BD
:100BF000FF920F931F93CF93DF93CDB7DEB72A9762
:100C00000FB6F894DEBF0FBECDBF9A8389833A0139
:100C10003C832B83FE82ED82D886CF82BA86A9865A
:100C2000EF8CF8A0FB01A080B180C280D38020911E
:100C30004401309145014091460150914701C60160
:100C4000B50171D518160CF468C020914801309197
:100C5000490140914A0150914B01C601B501E0D3D1
:100C600087FD5BC0F8012080318042805380209155
:100C70004C0130914D0140914E0150914F01C20104
:100C8000B10151D518160CF448C020915001309193
:100C900051014091520150915301C201B101C0D3A1
:100CA00087FD3BC0A2019101C601B50154D39F77D6
:100CB00011E020915401309155014091560150911D
:100CC000570131D587FD10E0112341F0A0908A0132
:100CD000B0908B01C0908C01D0908D01F701008500
:100CE000023009F45DC1D8F40130A1F181E090E057
:100CF000F40195838483F30180819181029708F048
:100D000071C16091400170914101809142019091C7
:100D100043019058A6019501BAC011E0D7CF033026
:100D200009F474C1043011F7F40115821482E981C9
:100D3000FA818081882361F081E090E0F3012081D5
:100D40003181232B11F490E080E0892B09F04AC116
:100D5000F40121C1F30180819181F701049730F4FE
:100D6000118682E0808783E090E041C160817181DB
:100D7000828193812185213009F0D9C024E030E0BF
:100D8000F4013583248320E030E040E85FE348D37A
:100D900081115AC082E0F70181878DEC9CECACE4B4
:100DA000BFE384839583A683B783F3018081909109
:100DB000580198172CF09091590189170CF091C1A6
:100DC00090918E0181E0111103C0911101C080E06A
:100DD000E985FA858083882309F486C180915A01C8
:100DE00090915B01A0915C01B0915D01ED81FE816C
:100DF00080839183A283B383E985FA8580818823E8
:100E000009F408C280919001082E000C990BEF8123
:100E1000F885918380832A960FB6F894DEBF0FBEC3
:100E2000CDBFDF91CF911F910F91FF90EF90DF9099
:100E3000CF90BF90AF909F908F907F906F905F907A
:100E40004F903F902F9008952BEA3AEA4AEA5EE3EA
:100E5000C601B50168D418160CF520E030E040EC6E
:100E60005FE360915E0170915F01809160019091FC
:100E700061015DD41B012C012BEA3AEA4AEA5EE3E8
:100E8000C601B50168D29B01AC01C201B1014FD4CA
:100E9000F401608371838283938387CF2BEA3AEADC
:100EA0004AEA5EE3C601B501BBD218160CF47DCF49
:100EB000EB81FC81208031804280538020E030E053
:100EC000A901C201B1012FD41816D4F420905E01FB
:100ED00030905F01409060015090610157FA50944A
:100EE00057F8509420E030E040E450E4C601B501EA
:100EF0001ED49B01AC0160E070E080E89FE3C2CFAC
:100F000020E030E0A901C201B1018AD287FF4DCFB4
:100F1000F401108211821282138280E090E0A0E836
:100F2000BFE3F70180839183A283B3833ECF20E0A8
:100F300030E0A90175D2811108C0F701018784E072
:100F400090E0F4019583848325C0EB81FC81A0802F
:100F5000B180C280D38020E030E0A901C601B50194
:100F60005FD287FF12C020915E0130915F014091F6
:100F7000600150916101F7016481758186819781DB
:100F8000D6D3A6019501505882CFF4011082118268
:100F900012821382F701108211821282138205CF0E
:100FA00083E090E0F401958384832BEA3AEA4AEAED
:100FB0005EE3C601B501B7D3F30120813181181674
:100FC00074F481E090E02430310510F490E080E08A
:100FD000892B29F081E0F70180878187B0CF23300A
:100FE000310548F483E0F701808782E090E0F40166
:100FF00095838483DACEA601950160915E0170919C
:101000005F01809160019091610141CF82E090E0A9
:10101000F40195838483EB81FC81A080B180C28040
:10102000D38020E030E040EA50ECC601B5017BD32C
:101030001816A4F4E981FA818081882379F081E08F
:1010400090E0F301208131812330310510F490E0EC
:1010500080E0892B19F082E0F70184CE20E030E0B7
:1010600040EA50E4C601B501DBD187FF17C0E98132
:10107000FA818081882391F081E090E0F301208162
:1010800031812130310511F090E080E0892B31F081
:1010900085E0F701808781E090E0A9CFC601B50126
:1010A0009F7720E030E040EA50E4BAD187FF50CE8D
:1010B000E981FA818081882309F44ACE81E090E0B9
:1010C000F30120813181232B11F090E080E0892B06
:1010D00009F43ECE84E0F7018087F4011582148282
:1010E00064CE90918F016ECEF401E080F180028198
:1010F0001381848195818130910509F443C0F8F012
:101100008230910509F456C0039709F46BC0A09092
:101110008201B0908301C0908401D0908501970135
:10112000A801B501C6017CD187FD27C0A09086012A
:10113000B0908701C0908801D090890117C0A0901D
:101140006201B0906301C0906401D0906501970185
:10115000A801B501C60164D187FD0FC0A09066014A
:10116000B0906701C0906801D09069019701A80113
:10117000B501C601D8D2181614F475018601C7014D
:10118000D80134CEA0906A01B0906B01C0906C0180
:10119000D0906D019701A801B501C60141D187FD2D
:1011A000ECCFA0906E01B0906F01C0907001D09014
:1011B0007101DCCFA0907201B0907301C0907401F6
:1011C000D09075019701A801B501C60129D187FD0D
:1011D000D4CFA0907601B0907701C0907801D090E4
:1011E0007901C4CFA0907A01B0907B01C0907C01BE
:1011F000D0907D019701A801B501C60111D187FDED
:10120000BCCFA0907E01B0907F01C0908001D090B3
:101210008101ACCFF40184819581F9CDFB019183EB
:10122000808308958ED06093F9027093FA028093C0
:10123000FB029093FC028AD06093ED027093EE0261
:101240008093EF029093F00268D06093F502709360
:10125000F6028093F7029093F80264D06093F10253
:101260007093F2028093F3029093F40260D0609343
:10127000FD027093FE028093FF02909300035CD006
:10128000609301037093020380930303909304031C
:101290000895CF92DF92EF92FF92CF936B017C0182
:1012A000AC019B016091F5027091F6028091F7020A
:1012B0009091F802B5D0C1E0882369F0A7019601AA
:1012C0006091FD027091FE028091FF0290910003F7
:1012D000A7D08111C0E08C2FCF91FF90EF90DF90CD
:1012E000CF9008950F931F938B019C010027112726
:1012F00020783F770115110520483F4749F4AB019D
:10130000BC016F77772781E0452B462B472B09F4EB
:1013100080E01F910F910895E5CF60E070E080E8D4
:101320009FE7089560E070E080E89FE7089560E03F
:1013300070E080E89FEF089560E070E080E89FEF44
:10134000089560E070E080EC9FEF089560E070E049
:1013500080EC9FEF08955058BB27AA270ED092C16A
:1013600083D130F088D120F031F49F3F11F41EF486
:1013700078C10EF4E095E7FB45C1E92F94D180F3E5
:10138000BA17620773078407950718F071F49EF582
:10139000C3C10EF4E0950B2EBA2FA02D0B01B9019D
:1013A00090010C01CA01A0011124FF27591B99F0DB
:1013B000593F50F4503E68F11A16F040A22F232FE7
:1013C000342F4427585FF3CF469537952795A79537
:1013D000F0405395C9F77EF41F16BA0B620B730BDE
:1013E000840BBAF09150A1F0FF0FBB1F661F771F4F
:1013F000881FC2F70EC0BA0F621F731F841F48F404
:10140000879577956795B795F7959E3F08F0B3CF89
:101410009395880F08F09927EE0F97958795089573
:10142000CDD008F481E0089546D188F09F5790F020
:10143000B92F9927B751A0F0D1F0660F771F881FF9
:10144000991F1AF0BA95C9F712C0B13081F064D172
:10145000B1E0089561C1672F782F8827B85F39F010
:10146000B93FCCF3869577956795B395D9F73EF458
:1014700090958095709561957F4F8F4F9F4F089500
:10148000E89409C097FB3EF490958095709561951E
:101490007F4F8F4F9F4F9923A9F0F92F96E9BB27D4
:1014A0009395F695879577956795B795F111F8CF50
:1014B000FAF4BB0F11F460FF1BC06F5F7F4F8F4FBB
:1014C0009F4F16C0882311F096E911C0772321F0B1
:1014D0009EE8872F762F05C0662371F096E8862F49
:1014E00070E060E02AF09A95660F771F881FDAF7A0
:1014F000880F9695879597F90895F7D080F09F37D4
:1015000040F491110EF009C160E070E080E89FEBBB
:10151000089526F41B16611D711D811D79C093C0AD
:10152000A3D018F011F0A7D038F49BC0F6C0E92F73
:10153000BAD0B0F35523C9F3E7FB621773078407EA
:101540009507A8F199F3E92FFF2788232AF031970F
:10155000660F771F881FDAF7952F5527442332F03F
:1015600091505040220F331F441FD2F7BB27E91B75
:10157000F50B621B730B840BB109C1F222F4620FED
:10158000731F841FB11D31972AF0660F771F881FC4
:10159000BB1FEFCF915050405AF041F0882332F0FA
:1015A000660F771F881F91505040C1F793954BC02D
:1015B0008695779567959F5FD9F7F8CF990F0008C3
:1015C000550FAA0BE0E8FEEF16161706E807F90715
:1015D000C0F012161306E407F50798F0621B730BB0
:1015E000840B950B39F40A2661F0232B242B252B31
:1015F00021F408950A2609F4A140A6958FEF811DD4
:10160000811D089597F99F6780E870E060E0089574
:10161000882371F4772321F09850872B762F07C009
:10162000662311F499270DC09051862B70E060E07D
:101630002AF09A95660F771F881FDAF7880F96951C
:10164000879597F908959F3F31F0915020F4879541
:1016500077956795B795880F911D9695879597F91A
:1016600008959FEF80EC089500240A94161617063B
:1016700018060906089500240A9412161306140683
:1016800005060895092E0394000C11F4882352F0E6
:10169000BB0F40F4BF2B11F460FF04C06F5F7F4F9E
:1016A0008F4F9F4F089557FD9058440F551F59F085
:1016B0005F3F71F04795880F97FB991F61F09F3F3F
:1016C00079F087950895121613061406551FF2CF68
:1016D0004695F1DF08C0161617061806991FF1CFB8
:1016E00086957105610508940895E5DFA0F0BEE7D1
:1016F000B91788F4BB279F3860F41616B11D672F01
:10170000782F8827985FF7CF869577956795B11DD5
:1017100093959639C8F30895E894BB2766277727F1
:10172000CB0197F908954ADF08F48FEF08950BD0A5
:10173000A9CF9ADF28F09FDF18F0952309F062CF38
:1017400090CF1124EACFAFDFA0F3959FD1F3950F8F
:1017500050E0551F629FF001729FBB27F00DB11D35
:10176000639FAA27F00DB11DAA1F649F6627B00DC5
:10177000A11D661F829F2227B00DA11D621F739FAE
:10178000B00DA11D621F839FA00D611D221F749FBC
:101790003327A00D611D231F849F600D211D822F03
:1017A000762F6A2F11249F5750408AF0E1F088234A
:1017B0004AF0EE0FFF1FBB1F661F771F881F915057
:1017C0005040A9F79E3F510570F01CCFA6CF5F3F58
:1017D000ECF3983EDCF3869577956795B795F7958A
:1017E000E7959F5FC1F7FE2B880F911D9695879512
:1017F00097F908951F920F920FB60F9211242F930D
:101800003F938F939F93AF93BF938091C00190912B
:10181000C101A091C201B091C3013091BF0123E089
:10182000230F2D3758F50196A11DB11D2093BF013F
:101830008093C0019093C101A093C201B093C301F2
:101840008091C4019091C501A091C601B091C701DA
:101850000196A11DB11D8093C4019093C501A09371
:10186000C601B093C701BF91AF919F918F913F91F6
:101870002F910F900FBE0F901F90189526E8230F01
:101880000296A11DB11DD2CF789484B5826084BD2B
:1018900084B5816084BD85B5826085BD85B5816074
:1018A00085BDEEE6F0E0808181608083E1E8F0E0D4
:1018B0001082808182608083808181608083E0E803
:1018C000F0E0808181608083E1EBF0E080818460E2
:1018D0008083E0EBF0E0808181608083EAE7F0E0E4
:1018E0008081846080838081826080838081816048
:1018F00080838081806880831092C10008958E303B
:1019000008F08E502091910190E4299F90011124BC
:101910008770822B80937C0080917A008064809312
:101920007A0080917A0086FDFCCF809178009091BA
:1019300079000895833081F028F4813099F0823065
:10194000A9F008958730A9F08830C9F08430B1F447
:10195000809180008F7D03C0809180008F7780937D
:101960008000089584B58F7784BD089584B58F7DF8
:10197000FBCF8091B0008F778093B0000895809165
:10198000B0008F7DF9CFCF93DF9390E0FC01E45856
:10199000FF4F249180579F4FFC0184918823C9F009
:1019A00090E0880F991FFC01E854FF4FA591B49176
:1019B000FC01E255FF4FC591D49161110DC09FB755
:1019C000F8948C91209582238C93888128232883F6
:1019D0009FBFDF91CF910895623051F49FB7F89483
:1019E0003C91822F809583238C93E8812E2BEFCF1F
:1019F0008FB7F894EC912E2B2C938FBFEACF1F93C7
:101A0000CF93DF93282F30E0F901E859FF4F8491FD
:101A1000F901E458FF4FD491F901E057FF4FC49109
:101A2000CC23A1F0162F811185DFEC2FF0E0EE0F13
:101A3000FF1FE255FF4FA591B4918FB7F894EC9139
:101A4000111108C0D095DE23DC938FBFDF91CF91B9
:101A50001F910895DE2BF8CFCF93DF93282F30E02E
:101A6000F901E859FF4F8491F901E458FF4FD491EF
:101A7000F901E057FF4FC491CC2399F081115ADF4F
:101A8000EC2FF0E0EE0FFF1FEC55FF4FA591B49146
:101A9000EC91ED2381E090E009F480E0DF91CF91BB
:101AA000089580E090E0FACFFC01918D228D892F7E
:101AB00090E0805C9F4F821B91098F739927089556
:101AC000FC01918D828D981731F0828DE80FF11D08
:101AD000858D90E008958FEF9FEF0895FC01918D23
:101AE000828D981761F0A28DAE0FBF2FB11D5D964C
:101AF0008C91928D9F5F9F73928F90E008958FEFEE
:101B00009FEF0895FC01538D448D252F30E0842FE5
:101B100090E0821B930B541710F0CF960895019715
:101B20000895FC01A48DA80FB92FB11DA35ABF4F72
:101B30002C91848D90E001968F739927848FA689CC
:101B4000B7892C93A089B1898C91837080648C9320
:101B5000938D848D981306C00288F389E02D8081CF
:101B60008F7D80830895CF93DF93EC01888D882348
:101B7000B1F0AA89BB89E889F9898C9185FD03C0F8
:101B8000808186FD0CC00FB607FCF7CF8C9185FFD6
:101B9000F2CF808185FFEDCFCE01C3DFEACFDF91A9
:101BA000CF910895EF92FF920F931F93CF93DF93FE
:101BB000EC0181E0888F9B8D8C8D98131AC0E88989
:101BC000F989808185FF15C09FB7F894EE89FF8958
:101BD0006083E889F98980818370806480839FBFF6
:101BE00081E090E0DF91CF911F910F91FF90EF90F6
:101BF0000895F62E0B8D10E00F5F1F4F0F73112706
:101C0000E02E8C8D8E110BC00FB607FCFACFE88941
:101C1000F989808185FFF5CFCE0183DFF2CFEB8D8F
:101C2000EC0FFD2FF11DE35AFF4FF0829FB7F894A0
:101C30000B8FEA89FB8980818062D0CFCF92DF92BF
:101C4000EF92FF921F93CF93DF93EC016A017B0128
:101C5000122FE889F98982E08083C11481EED806C9
:101C6000E104F10499F060E079E08DE390E0A701F0
:101C70009601F5D0215031094109510956954795F2
:101C800037952795211580E1380790F0E889F98983
:101C9000108260E874E88EE190E0A7019601DFD041
:101CA0002150310941095109569547953795279596
:101CB000EC85FD853083EE85FF852083188EEC89C9
:101CC000FD891083EA89FB89808180618083EA89AC
:101CD000FB89808188608083EA89FB8980818068B4
:101CE0008083EA89FB8980818F7D8083DF91CF911A
:101CF0001F91FF90EF90DF90CF9008951F920F9269
:101D00000FB60F9211242F938F939F93EF93FF930E
:101D1000E091D801F091D9018081E091DE01F0914C
:101D2000DF0182FD1BC090818091E1018F5F8F7385
:101D30002091E201821741F0E091E101F0E0E853E7
:101D4000FE4F958F8093E101FF91EF919F918F91CD
:101D50002F910F900FBE0F901F9018958081F4CF98
:101D60001F920F920FB60F9211242F933F934F9310
:101D70005F936F937F938F939F93AF93BF93EF93F3
:101D8000FF9388EC91E0CDDEFF91EF91BF91AF9191
:101D90009F918F917F916F915F914F913F912F9183
:101DA0000F900FBE0F901F901895E8ECF1E0138292
:101DB000128288EE93E0A0E0B0E084839583A6834E
:101DC000B78388E991E09183808385EC90E09587E3
:101DD000848784EC90E09787868780EC90E0918BF5
:101DE000808B81EC90E0938B828B82EC90E0958BE2
:101DF000848B86EC90E0978B868B118E128E138EDF
:101E0000148E0895AF92BF92CF92DF92EF92FF921D
:101E10000F931F93CF93DF936C017B018B01040F12
:101E2000151FEB015E01AE18BF08C017D10759F0AE
:101E30006991D601ED91FC910190F081E02DC601F0
:101E40000995892B79F7C501DF91CF911F910F91EA
:101E5000FF90EF90DF90CF90BF90AF900895A1E2F8
:101E60001A2EAA1BBB1BFD010DC0AA1FBB1FEE1F14
:101E7000FF1FA217B307E407F50720F0A21BB30B5F
:101E8000E40BF50B661F771F881F991F1A9469F7DB
:101E900060957095809590959B01AC01BD01CF0137
:101EA0000895EE0FFF1F0590F491E02D0994F8942A
:021EB000FFCF62
:101EB2000000F041040201000080BF000080BF006A
:101EC2000080BF000080BFCDCCCC3D0A28A03BCD16
:101ED200CC4C3E0A28A03B0000803F0A28A03B00D1
:101EE200007042000070C20A28A03BCDCC4C3E00DC
:101EF200000020420000803F000000000000803F00
:101F020000000000CDCCCC3D040000000000000029
:101F1200A0420000000000000000000000000000DD
:101F220020C200000000000000000000A0420000EB
:101F320000000000A0420000A0C20000000001005A
:101F42000201AF0100000000D20D020F820DB30D9D
:061F5200540D6E0D600D40
:00000001FF
