:1000000061C0000086C0000084C0000082C0000003
:1000100080C000007EC000007CC000007AC00000EC
:1000200078C0000076C0000074C0000072C00000FC
:1000300070C0000039C400006CC000006AC000003D
:100040000C94F50966C000000C94790C0C94AB0C70
:1000500060C000005EC000005CC000005AC000002C
:1000600058C0000056C00000000000080002010057
:100070000003040700000000000000000102040863
:100080001020408001020408102001020408102002
:10009000040404040404040402020202020203032E
:1000A00003030303000000002300260029000000D2
:1000B0000000250028002B0000000000240027007D
:1000C0002A00D00C11241FBECFEFD8E0DEBFCDBF79
:1000D00011E0A0E0B1E0E8EAFAE102C005900D927B
:1000E000A235B107D9F722E0A2E5B1E001C01D9227
:1000F000A13AB207E1F710E0C2E6D0E004C02197D0
:10010000FE010E944C0DC136D107C9F769D40C9489
:10011000520D76CFCF93DF93882349F0EB018150C6
:100120000E947A0A99838883DF91CF910895FB0119
:1001300011821082F9CF0F931F938B019C0183E0F2
:1001400036952795179507958A95D1F70E5A1E4F24
:10015000462F477021E030E0F90102C0EE0FFF1F8B
:100160004A95E2F7AF01F80120812423CB010196E3
:10017000211102C090E080E01F910F9108950F932C
:100180001F938B019C0183E0369527951795079562
:100190008A95D1F7677081E090E001C0880F6A9579
:1001A000EAF7F801EE5AFE4F2081452B31F4809595
:1001B000822380831F910F910895822BFACFCF92D3
:1001C000DF92EF92FF92CF93DF936B017C0160E0AF
:1001D0008EE0C816D104E104F10490F48EE08C0D99
:1001E0000E94BE0AE6012196AE01C701B601C7DF33
:1001F000CE01DF91CF91FF90EF90DF90CF900895E7
:100200008C2DEECF882341F08150682F70E090E074
:1002100080E050E040E0B3CF0895611102C00C943B
:10022000BE0A6130E1F362E0FACF662319F061E0C3
:100230000C94FA0A60E0FCCF0E94270B21E00197A2
:1002400009F020E0822F0895FC0191E040916101C6
:10025000509162016091630170916401452B462BBE
:10026000472B09F090E091830895CF92DF92EF92AF
:10027000FF920F931F93CF93DF9300D0CDB7DEB7DC
:100280008091610190916201A0916301B09164013C
:100290000196A11DB11D85309105A105B10508F09C
:1002A0008DC18093610190936201A0936301B0932B
:1002B0006401C0901301D0901401E0901501F090FA
:1002C0001601A701960160913D0270913E02809156
:1002D0003F02909140029FD6882341F0C0923D0298
:1002E000D0923E02E0923F02F092400282E0A4DF10
:1002F00080938602C0900701D0900801E090090128
:10030000F0900A01A70196016091310270913202CA
:1003100080913302909134027ED6882341F0C092BE
:100320003102D0923202E0923302F09234026FE056
:1003300070E080E090E0FFDE9093300280932F0227
:1003400043E050E0BE016F5F7F4FE4DE69817A8158
:1003500090E080E090D620911701309118014091F3
:10036000190150911A01DED720911B0130911C0117
:1003700040911D0150911E01D5D760937602709374
:1003800077028093780290937902C0900B01D0900D
:100390000C01E0900D01F0900E01A7019601609113
:1003A000250270912602809127029091280233D66F
:1003B000882341F0C0922502D0922602E0922702C3
:1003C000F092280260E170E080E090E0B4DE90936B
:1003D00024028093230243E050E0BE016F5F7F4F11
:1003E00099DE69817A8190E080E045D620911F01F5
:1003F00030912001409121015091220193D7209109
:1004000023013091240140912501509126018AD782
:100410006FD66B017C017BD58111D9C0C701B601B4
:1004200033D58111D4C020E030E040E853E4C70167
:10043000B60178D66B017C0120E030E0A901EBD554
:1004400087FFC8C0C701B6019058E9D56195062E4F
:10045000000C770B7093830260938202C0900F01AF
:10046000D0901001E0901101F0901201A7019601C7
:100470006091190270911A0280911B0290911C02E6
:10048000CAD5882341F0C0921902D0921A02E09294
:100490001B02F0921C0261E170E080E090E04BDE14
:1004A000909318028093170243E050E0BE016F5F03
:1004B0007F4F30DE69817A8190E080E0DCD5209149
:1004C0002701309128014091290150912A012AD712
:1004D00020912B0130912C0140912D0150912E0142
:1004E00021D720912F01309130014091310150915D
:1004F00032012DD560937A0270937B0280937C0247
:1005000090937D022AE6C22E22E0D22E34E8E32E1A
:1005100032E0F32E0EE712E02AE732E042E852E042
:1005200066E772E086E892E096D211E02091000141
:1005300030910101409102015091030160917E02CE
:1005400070917F028091800290918102E7D687FDB1
:1005500010E0612F88E069DE60910401062E000C36
:10056000770B809184029091850268237923769598
:1005700067957695679589E058DE60910501062EAE
:10058000000C770B80918402909185026823792377
:10059000769567958AE049DE609184028091060134
:1005A00068238BE042DE0F900F90DF91CF911F9177
:1005B0000F91FF90EF90DF90CF900895109261011E
:1005C00010926201109263011092640172CEC12CEC
:1005D000D12C7601C701B60122D539CF61E08091D7
:1005E0006902811160E0609369028DE01ECEAF92D6
:1005F000BF92CF92DF92EF92FF921F93CF93DF9340
:1006000084E090E00AD464E772E08BE591E001D4E5
:10061000C1E1D2E080E0A82E81E0B82EF50183A9E7
:10062000809369028AE692E012D21CA2F5018389C6
:100630009489A589B6898CA79DA7AEA7BFA7C12C11
:10064000D12C7601C394CDA2DEA2EFA2F8A660E081
:1006500082E0E3DD11E019A7188EF501878190850E
:10066000A185B28588A399A3AAA3BBA3C98EDA8E5C
:10067000EB8EFC8E6FE070E080E090E0A0DD9F8F5D
:100680008E8F1D8F1C86F50183859485A585B68583
:100690008C8B9D8BAE8BBF8BCD86DE86EF86F88AEA
:1006A00060E170E080E090E08ADD9B8B8A8B198BA3
:1006B0001882F50187859089A189B28988879987F1
:1006C000AA87BB87C982DA82EB82FC8261E170E093
:1006D00080E090E074DD9F838E831D831092610221
:1006E000C0926202D0926302E0926402F0926502CC
:1006F00061E088E092DD1093660210925902C09288
:100700005A02D0925B02E0925C02F0925D0261E0DC
:1007100089E083DD10935E0210925102C092520272
:10072000D0925302E0925402F092550261E08AE0C6
:1007300074DD1093560218AAC9AADAAAEBAAFCAA79
:1007400061E08BE06ADD1DAB18AEC9AEDAAEEBAE90
:10075000FCAE61E08DE061DD1DAFDF91CF911F91B7
:10076000FF90EF90DF90CF90BF90AF900895809171
:100770003502811103C081E0809335028091290206
:1007800081111DC081E08093290280912A029091FD
:100790002B02A0912C02B0912D020197A105B10569
:1007A00071F480912E02882351F06FE070E080E0B8
:1007B00090E0C1DC9093300280932F0223DD809182
:1007C0001D0281111DC081E080931D0280911E02D7
:1007D00090911F02A0912002B09121020197A105E2
:1007E000B10571F480912202882351F060E170E03C
:1007F00080E090E0A0DC909324028093230202DD4D
:100800008091110281111DC081E0809311028091BD
:10081000120290911302A0911402B0911502019757
:10082000A105B10571F480911602882351F061E1B0
:1008300070E080E090E07FDC9093180280931702D4
:10084000E1DC80916102811103C081E0809361024B
:1008500080915902811103C081E0809359028091F7
:100860005102811103C081E08093510280914102C5
:10087000811103C081E0809341028091490281117E
:1008800003C081E080934902089526E030E040E80B
:1008900055E260E070E090E080E000C0892B19F440
:1008A00084E791E0C6C708951F920F920FB60F928A
:1008B00011242F933F934F935F936F937F938F9365
:1008C0009F93AF93BF93EF93FF9386E997EE909337
:1008D00085008093840032D0FF91EF91BF91AF915A
:1008E0009F918F917F916F915F914F913F912F9148
:1008F0000F900FBE0F901F90189586E997EE90937A
:10090000850080938400AFE6B0E08C918E7F8C935D
:10091000E0E8F0E080818C7F8083E1E8F0E0808196
:10092000877E808380818460808380818C7F8083C8
:100930008C9181608C93089581E00895CF93DF932B
:1009400000D0CDB7DEB78091670191E0980F90930A
:100950006701882369F021E030E030936A01209339
:100960006901809367010F900F90DF91CF910895F7
:10097000CE01019669DC789478DCF8948091670167
:100980008150809367018A81882389F08091660174
:1009900091E0980F90936601882349F021E030E0C0
:1009A00030936A012093690180936601DCCF8091C6
:1009B00066018823C1F2809168018111D4CF81E062
:1009C0008093680178940ADEF894809166018150E2
:1009D0008093660180916801815080936801C3CF44
:1009E000CF93DF93109288021092870248D54DDF93
:1009F000C0913D01D0913E0119821882F8DDF89432
:100A00007CDF81E028813981232B09F080E080930D
:100A100087027894789480918702811107C0A7DEBD
:100A2000F89490E080E0DF91CF91089581E02881F3
:100A30003981232B09F480E0809388029091880209
:100A400081E0911180E08093870276DFE4CF24E09B
:100A5000FC01208708954F925F926F927F928F9250
:100A60009F92AF92BF92CF92DF92EF92FF920F933D
:100A70001F93CF93DF934C012B015A013901E801F9
:100A8000F6011085123009F422C1E0F41130B9F1F9
:100A900081E090E0F70191838083F501808191816D
:100AA000029708F03BC1609134017091350180914B
:100AB0003601909137019058F201208131814281B5
:100AC000538181C0133009F43DC1143009F7F70197
:100AD00011821082FC018081882361F081E090E026
:100AE000FA0120813181232B11F490E080E0892BE1
:100AF00009F014C1188219821A821B822BC0FA01D4
:100B000080819181F601049730F4118682E080871C
:100B100083E090E008C160817181828193812185A9
:100B2000213009F09DC024E030E0F70131832083BB
:100B300020E030E040E85FE36ED281111CC082E02B
:100B4000F601818780E090E0A0E0BFE38483958395
:100B5000A683B783DF91CF911F910F91FF90EF9004
:100B6000DF90CF90BF90AF909F908F907F906F90CD
:100B70005F904F900895F20180809180A280B380B1
:100B80002BEA3AEA4AEA5EE3C501B401C7D3181674
:100B900004F520E030E040EC5FE3609138017091B3
:100BA000390180913A0190913B01BCD36B017C01EA
:100BB0002BEA3AEA4AEA5EE3C501B401C7D19B01D8
:100BC000AC01C701B601AED3688379838A839B8366
:100BD000C1CF2BEA3AEA4AEA5EE3C501B4011BD26F
:100BE00018160CF4B7CFF3014080518062807380F7
:100BF00020E030E0A901C301B20190D31816D4F46B
:100C0000C0903801D0903901E0903A01F0903B015A
:100C1000F7FAF094F7F8F09420E030E040E450E484
:100C2000C501B4017FD39B01AC0160E070E080E8B6
:100C30009FE3C4CF20E030E0A901C301B201EBD1B2
:100C400087FF88CF188219821A821B8280E090E089
:100C5000A0E8BFE3F60180839183A283B3837ACFB8
:100C600020E030E0A901D7D1811108C0F601118739
:100C700084E090E0F7019183808323C0F3018080BA
:100C80009180A280B38020E030E0A901C501B401C9
:100C9000C2D187FF12C020913801309139014091B3
:100CA0003A0150913B01F6016481758186819781FB
:100CB00039D3A5019401505886CF188219821A821F
:100CC0001B82F601108211821282138243CF83E0CD
:100CD00090E0F70191838083FB0140805180628026
:100CE00073802BEA3AEA4AEA5EE3C301B20116D303
:100CF000F50120813181181674F481E090E02430F0
:100D0000310510F490E080E0892B29F081E0F601B4
:100D100080878187ADCF2330310548F483E0F60129
:100D2000808782E090E0F7019183808313CFA30155
:100D30009201609138017091390180913A0190914E
:100D40003B0141CF82E090E0F70191838083F9017C
:100D5000408051806280738020E030E040EA50ECB7
:100D6000C301B201DBD218169CF4F4018081882300
:100D700079F081E090E0F501208131812330310567
:100D800010F490E080E0892B19F082E0F601BFCEEC
:100D900020E030E040EA50E4C301B2013CD187FFDB
:100DA00016C0F4018081882391F081E090E0F50184
:100DB000208131812130310511F090E080E0892BD4
:100DC00031F085E0F601808781E090E0ACCFC3018F
:100DD000B2019F7720E030E040EA50E41CD187FF69
:100DE00089CEF4018081882309F484CE81E090E0EB
:100DF000F50120813181232B11F090E080E0892BD7
:100E000009F478CE84E0F6018087F7011182108220
:100E1000A1CEFB019183808308958ED060939502CB
:100E20007093960280939702909398028AD0609371
:100E3000890270938A0280938B0290938C0268D00F
:100E40006093910270939202809393029093940224
:100E500064D060938D0270938E0280938F02909382
:100E6000900260D06093990270939A0280939B02E3
:100E700090939C025CD060939D0270939E0280933D
:100E80009F029093A0020895CF92DF92EF92FF927B
:100E9000CF936B017C01AC019B0160919102709139
:100EA00092028091930290919402B5D0C1E0882380
:100EB00069F0A70196016091990270919A02809160
:100EC0009B0290919C02A7D08111C0E08C2FCF9102
:100ED000FF90EF90DF90CF9008950F931F938B01B9
:100EE0009C010027112720783F7701151105204824
:100EF0003F4749F4AB01BC016F77772781E0452B71
:100F0000462B472B09F480E01F910F910895E5CF00
:100F100060E070E080E89FE7089560E070E080E8BE
:100F20009FE7089560E070E080E89FEF089560E03B
:100F300070E080E89FEF089560E070E080EC9FEF44
:100F4000089560E070E080EC9FEF08955058BB2753
:100F5000AA270ED092C183D130F088D120F031F48D
:100F60009F3F11F41EF478C10EF4E095E7FB45C1F4
:100F7000E92F94D180F3BA176207730784079507A6
:100F800018F071F49EF5C3C10EF4E0950B2EBA2F44
:100F9000A02D0B01B90190010C01CA01A00111247F
:100FA000FF27591B99F0593F50F4503E68F11A162B
:100FB000F040A22F232F342F4427585FF3CF4695BC
:100FC00037952795A795F0405395C9F77EF41F16DE
:100FD000BA0B620B730B840BBAF09150A1F0FF0FA8
:100FE000BB1F661F771F881FC2F70EC0BA0F621F94
:100FF000731F841F48F4879577956795B795F79584
:101000009E3F08F0B3CF9395880F08F09927EE0F15
:10101000979587950895CDD008F481E0089546D13D
:1010200088F09F5790F0B92F9927B751A0F0D1F0D1
:10103000660F771F881F991F1AF0BA95C9F712C05B
:10104000B13081F064D1B1E0089561C1672F782F8C
:101050008827B85F39F0B93FCCF3869577956795C7
:10106000B395D9F73EF490958095709561957F4F33
:101070008F4F9F4F0895E89409C097FB3EF49095D9
:101080008095709561957F4F8F4F9F4F9923A9F061
:10109000F92F96E9BB279395F695879577956795F0
:1010A000B795F111F8CFFAF4BB0F11F460FF1BC034
:1010B0006F5F7F4F8F4F9F4F16C0882311F096E9C7
:1010C00011C0772321F09EE8872F762F05C0662375
:1010D00071F096E8862F70E060E02AF09A95660F2E
:1010E000771F881FDAF7880F9695879597F90895E7
:1010F000F7D080F09F3740F491110EF009C160E005
:1011000070E080E89FEB089526F41B16611D711DA9
:10111000811D79C093C0A3D018F011F0A7D038F486
:101120009BC0F6C0E92FBAD0B0F35523C9F3E7FB53
:101130006217730784079507A8F199F3E92FFF2732
:1011400088232AF03197660F771F881FDAF7952FCB
:101150005527442332F091505040220F331F441F33
:10116000D2F7BB27E91BF50B621B730B840BB1098C
:10117000C1F222F4620F731F841FB11D31972AF050
:10118000660F771F881FBB1FEFCF915050405AF05A
:1011900041F0882332F0660F771F881F915050402E
:1011A000C1F793954BC08695779567959F5FD9F763
:1011B000F8CF990F0008550FAA0BE0E8FEEF1616BE
:1011C0001706E807F907C0F012161306E407F5073B
:1011D00098F0621B730B840B950B39F40A2661F0AF
:1011E000232B242B252B21F408950A2609F4A14052
:1011F000A6958FEF811D811D089597F99F6780E85F
:1012000070E060E00895882371F4772321F098500E
:10121000872B762F07C0662311F499270DC09051B4
:10122000862B70E060E02AF09A95660F771F881F82
:10123000DAF7880F9695879597F908959F3F31F0D3
:10124000915020F4879577956795B795880F911DF4
:101250009695879597F908959FEF80EC089500245F
:101260000A941616170618060906089500240A940B
:1012700012161306140605060895092E0394000C91
:1012800011F4882352F0BB0F40F4BF2B11F460FF20
:1012900004C06F5F7F4F8F4F9F4F089557FD905849
:1012A000440F551F59F05F3F71F04795880F97FB2A
:1012B000991F61F09F3F79F08795089512161306E4
:1012C0001406551FF2CF4695F1DF08C01616170613
:1012D0001806991FF1CF8695710561050894089548
:1012E000E5DFA0F0BEE7B91788F4BB279F3860F4AC
:1012F0001616B11D672F782F8827985FF7CF869530
:1013000077956795B11D93959639C8F30895E8943C
:10131000BB2766277727CB0197F908954ADF08F4A2
:101320008FEF08950BD0A9CF9ADF28F09FDF18F038
:10133000952309F062CF90CF1124EACFAFDFA0F35D
:10134000959FD1F3950F50E0551F629FF001729F5A
:10135000BB27F00DB11D639FAA27F00DB11DAA1F79
:10136000649F6627B00DA11D661F829F2227B00DC6
:10137000A11D621F739FB00DA11D621F839FA00D51
:10138000611D221F749F3327A00D611D231F849FA1
:10139000600D211D822F762F6A2F11249F575040F8
:1013A0008AF0E1F088234AF0EE0FFF1FBB1F661F93
:1013B000771F881F91505040A9F79E3F510570F04C
:1013C0001CCFA6CF5F3FECF3983EDCF38695779574
:1013D0006795B795F795E7959F5FC1F7FE2B880F47
:1013E000911D9695879597F908951F920F920FB6C4
:1013F0000F9211242F933F938F939F93AF93BF939B
:1014000080916C0190916D01A0916E01B0916F017E
:1014100030916B0123E0230F2D3758F50196A11D64
:10142000B11D20936B0180936C0190936D01A0938B
:101430006E01B0936F018091700190917101A09144
:101440007201B09173010196A11DB11D80937001CD
:1014500090937101A0937201B0937301BF91AF910A
:101460009F918F913F912F910F900FBE0F901F90E2
:10147000189526E8230F0296A11DB11DD2CF7894AE
:1014800084B5826084BD84B5816084BD85B5826089
:1014900085BD85B5816085BDEEE6F0E08081816027
:1014A0008083E1E8F0E01082808182608083808127
:1014B00081608083E0E8F0E0808181608083E1EBFF
:1014C000F0E0808184608083E0EBF0E080818160E7
:1014D0008083EAE7F0E0808184608083808182609D
:1014E0008083808181608083808180688083109286
:1014F000C10008958E3008F08E5020913C0190E498
:10150000299F900111248770822B80937C00809109
:101510007A00806480937A0080917A0086FDFCCF07
:1015200080917800909179000895833081F028F4BB
:10153000813099F08230A9F008958730A9F0883081
:10154000C9F08430B1F4809180008F7D03C0809118
:1015500080008F7780938000089584B58F7784BD55
:10156000089584B58F7DFBCF8091B0008F778093F5
:10157000B00008958091B0008F7DF9CFCF93DF93B5
:1015800090E0FC01E458FF4F249180579F4FFC01ED
:1015900084918823C9F090E0880F991FFC01E854DA
:1015A000FF4FA591B491FC01E255FF4FC591D49135
:1015B00061110DC09FB7F8948C91209582238C9374
:1015C0008881282328839FBFDF91CF9108956230BF
:1015D00051F49FB7F8943C91822F809583238C938C
:1015E000E8812E2BEFCF8FB7F894EC912E2B2C9314
:1015F0008FBFEACF1F93CF93DF93282F30E0F901FD
:10160000E859FF4F8491F901E458FF4FD491F90153
:10161000E057FF4FC491CC23A1F0162F811185DF35
:10162000EC2FF0E0EE0FFF1FE255FF4FA591B491B4
:101630008FB7F894EC91111108C0D095DE23DC939C
:101640008FBFDF91CF911F910895DE2BF8CFCF93FD
:10165000DF93282F30E0F901E859FF4F8491F90119
:10166000E458FF4FD491F901E057FF4FC491CC23C8
:1016700099F081115ADFEC2FF0E0EE0FFF1FEC55CF
:10168000FF4FA591B491EC91ED2381E090E009F436
:1016900080E0DF91CF91089580E090E0FACFFC01E7
:1016A000918D228D892F90E0805C9F4F821B910944
:1016B0008F7399270895FC01918D828D981731F0D1
:1016C000828DE80FF11D858D90E008958FEF9FEFDB
:1016D0000895FC01918D828D981761F0A28DAE0F57
:1016E000BF2FB11D5D968C91928D9F5F9F73928FDE
:1016F00090E008958FEF9FEF0895FC01538D448D86
:10170000252F30E0842F90E0821B930B541710F0AC
:10171000CF96089501970895FC01A48DA80FB92FC5
:10172000B11DA35ABF4F2C91848D90E001968F7309
:101730009927848FA689B7892C93A089B1898C9128
:10174000837080648C93938D848D981306C0028877
:10175000F389E02D80818F7D80830895CF93DF937F
:10176000EC01888D8823B1F0AA89BB89E889F989C1
:101770008C9185FD03C0808186FD0CC00FB607FCEF
:10178000F7CF8C9185FFF2CF808185FFEDCFCE0121
:10179000C3DFEACFDF91CF910895EF92FF920F93CD
:1017A0001F93CF93DF93EC0181E0888F9B8D8C8D0D
:1017B00098131AC0E889F989808185FF15C09FB701
:1017C000F894EE89FF896083E889F98980818370C4
:1017D000806480839FBF81E090E0DF91CF911F9173
:1017E0000F91FF90EF900895F62E0B8D10E00F5F94
:1017F0001F4F0F731127E02E8C8D8E110BC00FB66B
:1018000007FCFACFE889F989808185FFF5CFCE0101
:1018100083DFF2CFEB8DEC0FFD2FF11DE35AFF4F6D
:10182000F0829FB7F8940B8FEA89FB8980818062F0
:10183000D0CFCF92DF92EF92FF921F93CF93DF939F
:10184000EC016A017B01122FE889F98982E080832B
:10185000C11481EED806E104F10499F060E079E06A
:101860008DE390E0A7019601F5D02150310941099F
:1018700051095695479537952795211580E13807E9
:1018800090F0E889F989108260E874E88EE190E0D0
:10189000A7019601DFD02150310941095109569520
:1018A000479537952795EC85FD853083EE85FF8537
:1018B0002083188EEC89FD891083EA89FB89808159
:1018C00080618083EA89FB89808188608083EA89DE
:1018D000FB89808180688083EA89FB8980818F7D94
:1018E0008083DF91CF911F91FF90EF90DF90CF9099
:1018F00008951F920F920FB60F9211242F938F937A
:101900009F93EF93FF93E0918401F0918501808193
:10191000E0918A01F0918B0182FD1BC09081809142
:101920008D018F5F8F7320918E01821741F0E091BE
:101930008D01F0E0EC58FE4F958F80938D01FF9163
:10194000EF919F918F912F910F900FBE0F901F904D
:1019500018958081F4CF1F920F920FB60F92112429
:101960002F933F934F935F936F937F938F939F93A7
:10197000AF93BF93EF93FF9384E791E0CDDEFF91A8
:10198000EF91BF91AF919F918F917F916F915F91F7
:101990004F913F912F910F900FBE0F901F90189570
:1019A000E4E7F1E01382128288EE93E0A0E0B0E079
:1019B00084839583A683B78383E491E091838083B6
:1019C00085EC90E09587848784EC90E09787868704
:1019D00080EC90E0918B808B81EC90E0938B828BFC
:1019E00082EC90E0958B848B86EC90E0978B868BD5
:1019F000118E128E138E148E0895AF92BF92CF92D5
:101A0000DF92EF92FF920F931F93CF93DF936C01BE
:101A10007B018B01040F151FEB015E01AE18BF089F
:101A2000C017D10759F06991D601ED91FC91019051
:101A3000F081E02DC6010995892B79F7C501DF9169
:101A4000CF911F910F91FF90EF90DF90CF90BF90BB
:101A5000AF900895A1E21A2EAA1BBB1BFD010DC079
:101A6000AA1FBB1FEE1FFF1FA217B307E407F5074E
:101A700020F0A21BB30BE40BF50B661F771F881F2A
:101A8000991F1A9469F760957095809590959B01C0
:101A9000AC01BD01CF010895EE0FFF1F0590F49139
:081AA000E02D0994F894FFCF3A
:101AA8000000F041040201000080BF000080BF0078
:101AB8000080BFCDCCCC3D0A28A03BCDCC4C3E0A03
:101AC80028A03BCDCC4C3F0A28A03B000070420028
:101AD8000070C200000020420000A042015B01002B
:101AE800000000CD0BFD0C7D0BAE0B4F0B690B5BA3
:021AF8000B00E1
:00000001FF
