:1000000061C0000086C0000084C0000082C0000003
:1000100080C000007EC000007CC000007AC00000EC
:1000200078C0000076C0000074C0000072C00000FC
:1000300070C0000068C400006CC000006AC000000E
:100040000C94390B66C000000C94BD0D0C94EF0DA0
:1000500060C000005EC000005CC000005AC000002C
:1000600058C0000056C00000000000080002010057
:100070000003040700000000000000000102040863
:100080001020408001020408102001020408102002
:10009000040404040404040402020202020203032E
:1000A00003030303000000002300260029000000D2
:1000B0000000250028002B0000000000240027007D
:1000C0002A00140E11241FBECFEFD8E0DEBFCDBF33
:1000D00011E0A0E0B1E0E0E3FDE102C005900D9287
:1000E000AC38B107D9F722E0ACE8B1E001C01D920D
:1000F000A33EB207E1F710E0C2E6D0E004C02197CA
:10010000FE010E94900EC136D107C9F798D40C9415
:10011000960E76CFCF93DF93882349F0EB01815081
:100120000E94BE0B99838883DF91CF910895FB01D4
:1001300011821082F9CF0F931F938B019C0183E0F2
:1001400036952795179507958A95D1F704571E4F31
:10015000462F477021E030E0F90102C0EE0FFF1F8B
:100160004A95E2F7AF01F80120812423CB010196E3
:10017000211102C090E080E01F910F9108950F932C
:100180001F938B019C0183E0369527951795079562
:100190008A95D1F7677081E090E001C0880F6A9579
:1001A000EAF7F801E457FE4F2081452B31F48095A2
:1001B000822380831F910F910895822BFACFCF92D3
:1001C000DF92EF92FF92CF93DF936B017C0160E0AF
:1001D0008EE0C816D104E104F10490F48EE08C0D99
:1001E0000E94020CE6012196AE01C701B601C7DFED
:1001F000CE01DF91CF91FF90EF90DF90CF900895E7
:100200008C2DEECF882341F08150682F70E090E074
:1002100080E050E040E0B3CF0895611102C00C943B
:10022000020C6130E1F362E0FACF662319F061E07D
:100230000C943E0C60E0FCCF0E946B0C21E0019717
:1002400009F020E0822F0895FC0191E040919B018C
:1002500050919C0160919D0170919E01452B462B10
:10026000472B09F090E0918308958F929F92AF926F
:10027000BF92CF92DF92EF92FF920F931F93CF9393
:10028000DF93CDB7DEB729970FB6F894DEBF0FBE68
:10029000CDBF80919B0190919C01A0919D01B09157
:1002A0009E010196A11DB11D85309105A105B105E5
:1002B00008F09CC180939B0190939C01A0939D01A9
:1002C000B0939E01C0901301D0901401E0901501ED
:1002D000F0901601A7019601609177027091780263
:1002E0008091790290917A02DAD7882341F0C09206
:1002F0007702D0927802E0927902F0927A0282E05C
:100300009BDF8093C802C0900701D0900801E09065
:100310000901F0900A01A701960160916B027091AA
:100320006C0280916D0290916E02B9D7882341F0E2
:10033000C0926B02D0926C02E0926D02F0926E025B
:100340006FE070E080E090E0F6DE90936A028093C8
:10035000690243E050E0BE01695F7F4FDBDE6F81E1
:10036000788590E080E0CBD720911701309118017B
:100370004091190150911A010E94D60A20911B0147
:1003800030911C0140911D0150911E010E94D60A1E
:100390006093BE027093BF028093C0029093C1022B
:1003A000C0900B01D0900C01E0900D01F0900E0177
:1003B000A701960160915F027091600280916102D5
:1003C000909162026CD7882341F0C0925F02D09274
:1003D0006002E0926102F092620260E170E080E00F
:1003E00090E0A9DE90935E0280935D0243E050E0CE
:1003F000BE01695F7F4F8EDE6F81788590E080E07F
:100400007ED720911F013091200140912101509110
:1004100022010E94D60A20912301309124014091AB
:100420002501509126010E94D60AA6D76B017C01B6
:10043000B2D68111E4C0C701B6016AD68111DFC00E
:1004400020E030E040E853E4C701B601AFD76B01CC
:100450007C0120E030E0A90122D787FFD3C0C7018B
:10046000B601905820D76195062E000C770B70933B
:10047000C7026093C602C0900F01D0901001E090B7
:100480001101F0901201A701960160915302709141
:100490005402809155029091560201D7882341F071
:1004A000C0925302D0925402E0925502F09256024A
:1004B00061E170E080E090E03EDE90935202809334
:1004C000510243E050E0BE01695F7F4F23DE6F8140
:1004D000788590E080E013D72091270130912801A2
:1004E0004091290150912A010E94D60A20912B01A6
:1004F00030912C0140912D0150912E010E94D60A7D
:1005000020912F0130913001409131015091320101
:1005100062D66093C2027093C3028093C402909328
:10052000C50222EB822E22E0922E3CEAA32E32E07C
:10053000B32ECE0109966C0104977C018E010F5FEA
:100540001F4F22EC32E046EC52E06EEB72E088EC9A
:1005500092E0B0D211E029813A814B815C816091B7
:10056000000170910101809102019091030197D6E1
:1005700018160CF410E0612F88E057DE609104013A
:10058000062E000C770B8D819E816823792376954A
:1005900067957695679589E048DE60910501062E9E
:1005A000000C770B8D819E81682379237695679562
:1005B0008AE03BDE6D818091060168238BE035DEA9
:1005C00069858CE032DE29960FB6F894DEBF0FBE47
:1005D000CDBFDF91CF911F910F91FF90EF90DF90F2
:1005E000CF90BF90AF909F908F90089510929B01F5
:1005F00010929C0110929D0110929E0163CEC12C1D
:10060000D12C7601C701B6014ED62ECF61E0809184
:10061000AB02811160E06093AB028DE006CEAF9239
:10062000BF92CF92DF92EF92FF921F93CF93DF930F
:1006300084E090E036D56CEB72E085E991E02DD551
:10064000CBE4D2E080E0A82E81E0B82EF50183A9AA
:100650008093AB0282EB92E029D21CA2F501838940
:100660009489A589B6898CA79DA7AEA7BFA7C12CE1
:10067000D12C7601C394CDA2DEA2EFA2F8A660E051
:1006800082E0CBDD11E019A7188EF50187819085F6
:10069000A185B28588A399A3AAA3BBA3C98EDA8E2C
:1006A000EB8EFC8E6FE070E080E090E088DD9F8F45
:1006B0008E8F1D8F1C86F50183859485A585B68553
:1006C0008C8B9D8BAE8BBF8BCD86DE86EF86F88ABA
:1006D00060E170E080E090E072DD9B8B8A8B198B8B
:1006E0001882F50187859089A189B28988879987C1
:1006F000AA87BB87C982DA82EB82FC8261E170E063
:1007000080E090E05CDD9F838E831D831092A302C6
:10071000C092A402D092A502E092A602F092A70293
:1007200061E088E07ADD1093A80210929B02C092EB
:100730009C02D0929D02E0929E02F0929F0261E0A4
:1007400089E06BDD1093A00210929302C092940294
:10075000D0929502E0929602F092970261E08AE0D0
:100760005CDD1093980218AEC9AEDAAEEBAEFCAE0B
:1007700061E08BE052DD1DAF18AAC9AADAAAEBAA84
:10078000FCAA61E08CE049DD1DAB10928B02C092A7
:100790008C02D0928D02E0928E02F0928F0261E084
:1007A0008DE03BDD10939002DF91CF911F91FF9080
:1007B000EF90DF90CF90BF90AF90089580916F023F
:1007C000811103C081E080936F02809163028111E7
:1007D0001DC081E080936302809164029091650264
:1007E000A0916602B09167020197A105B10571F46D
:1007F00080916802882351F06FE070E080E090E023
:100800009ADC90936A0280936902FCDC8091570223
:1008100081111DC081E08093570280915802909110
:100820005902A0915A02B0915B020197A105B1054E
:1008300071F480915C02882351F060E170E080E007
:1008400090E079DC90935E0280935D02DBDC809126
:100850004B0281111DC081E080934B0280914C02BC
:1008600090914D02A0914E02B0914F020197A105C7
:10087000B10571F480915002882351F061E170E07C
:1008800080E090E058DC9093520280935102BADCF1
:100890008091A302811103C081E08093A302809123
:1008A0009B02811103C081E080939B02809193029F
:1008B000811103C081E080939302809183028111B2
:1008C00003C081E08093830280917B02811103C089
:1008D00081E080937B0280918B02811103C081E0D3
:1008E00080938B02089526E030E040E855E260E016
:1008F00070E090E080E000C0892B21F48EEA91E066
:100900000C945D0D08951F920F920FB60F92112453
:100910002F933F934F935F936F937F938F939F9307
:10092000AF93BF93EF93FF9386E997EE9093850083
:100930008093840032D0FF91EF91BF91AF919F914E
:100940008F917F916F915F914F913F912F910F9078
:100950000FBE0F901F90189586E997EE9093850033
:1009600080938400AFE6B0E08C918E7F8C93E0E8BA
:10097000F0E080818C7F8083E1E8F0E08081877EF9
:10098000808380818460808380818C7F80838C9150
:1009900081608C93089581E00895CF93DF9300D018
:1009A000CDB7DEB78091A10191E0980F9093A1019E
:1009B000882369F021E030E03093A4012093A30163
:1009C0008093A1010F900F90DF91CF910895CE01F8
:1009D00001963ADC789449DCF8948091A101815029
:1009E0008093A1018A81882389F08091A00191E000
:1009F000980F9093A001882349F021E030E03093D4
:100A0000A4012093A3018093A001DCCF8091A001D9
:100A10008823C1F28091A2018111D4CF81E080931B
:100A2000A2017894F3DDF8948091A0018150809325
:100A3000A0018091A20181508093A201C3CFCF93E6
:100A4000DF931092CA021092C9025DD64CDFC091AA
:100A50007701D091780119821882E1DDF8947CDF6A
:100A600081E028813981232B09F080E08093C9023D
:100A7000789478948091C902811107C09FDEF89420
:100A800090E080E0DF91CF91089581E02881398165
:100A9000232B09F480E08093CA029091CA0281E07E
:100AA000911180E08093C90276DFE4CF24E0FC015D
:100AB000208708952F923F924F925F926F927F927C
:100AC0008F929F92AF92BF92CF92DF92EF92FF925E
:100AD0000F931F93CF93DF9300D000D000D0CDB7FA
:100AE000DEB72C017A8369833A011901FC82EB821B
:100AF000DE82CD82F401F084F2E0FF1609F48EC1AB
:100B0000FF15F0F081E0F816B9F181E090E0F50111
:100B100095838483F30180819181029708F0A6C1B7
:100B200060913401709135018091360190913701C7
:100B30009058E981FA812081318142815381E7C057
:100B4000E3E0FE1609F4A6C1F4E0FF12DECFF501E2
:100B500015821482FC018081882361F081E090E09D
:100B6000FA0120813181232B11F490E080E0892B60
:100B700009F07CC1F5014DC1FA0180819181F40138
:100B8000049730F4118682E0808783E090E073C19F
:100B900060817181828193812185213009F006C1B4
:100BA00024E030E0F5013583248320E030E040E8A4
:100BB0005FE375D3811182C082E0F401818780E018
:100BC00090E0A0E0BFE384839583A683B783E981A7
:100BD000FA81C080D180E280F38020913801309189
:100BE000390140913A0150913B0120903C013090F5
:100BF0003D0140903E0150903F01F3018081909172
:100C00004001981781F090914101981761F09091FF
:100C10004201981741F090914301981721F090916B
:100C2000440198139EC1C701B601BCD418160CF438
:100C300098C199249394A2019101C701B6012FD3C1
:100C400087FF912C892DED81FE818083882309F413
:100C50008AC18091450190914601A0914701B091D0
:100C60004801F80180839183A283B383ED81FE81E3
:100C70008081882309F40DC280917501082E000C33
:100C8000990BEB81FC819183808326960FB6F894B3
:100C9000DEBF0FBECDBFDF91CF911F910F91FF90AF
:100CA000EF90DF90CF90BF90AF909F908F907F900C
:100CB0006F905F904F903F902F900895E981FA8157
:100CC000C080D180E280F3802BEA3AEA4AEA5EE310
:100CD000C701B60167D418160CF520E030E040ECEF
:100CE0005FE36091490170914A0180914B019091BD
:100CF0004C015CD41B012C012BEA3AEA4AEA5EE380
:100D0000C701B60167D29B01AC01C201B1014ED44B
:100D1000F501608371838283938359CF2BEA3AEA8A
:100D20004AEA5EE3C701B601BAD218160CF44FCFF7
:100D3000F101208031804280538020E030E0A90121
:100D4000C201B1012FD41816D4F42090490130907B
:100D50004A0140904B0150904C0157FA509457F87B
:100D6000509420E030E040E450E4C701B6011ED4C6
:100D70009B01AC0160E070E080E89FE3C3CF20E01E
:100D800030E0A901C201B1018AD287FF20CFF5016D
:100D9000108211821282138280E090E0A0E8BFE30B
:100DA000F40180839183A283B38311CF20E030E0EC
:100DB000A90175D2811108C0F401F18684E090E0A8
:100DC000F5019583848324C0F101C080D180E28045
:100DD000F38020E030E0A901C701B60160D287FFAF
:100DE00012C02091490130914A0140914B0150912C
:100DF0004C01F4016481758186819781D7D3A70165
:100E00009601505884CFF50110821182128213820C
:100E1000F4011082118212821382D9CE83E090E015
:100E2000F50195838483E981FA81C080D180E280D5
:100E3000F3802BEA3AEA4AEA5EE3C701B601B2D38D
:100E4000F30120813181181674F481E090E02430A0
:100E5000310510F490E080E0892B29F081E0F40165
:100E600080878187ABCF2330310548F483E0F401DC
:100E7000808782E090E0F50195838483A8CEA70166
:100E800096016091490170914A0180914B019091C6
:100E90004C013DCF82E090E0F50195838483F90118
:100EA000C080D180E280F38020E030E040EA50EC66
:100EB000C701B60177D318169CF4F201808188230C
:100EC00079F081E090E0F301208131812330310518
:100ED00010F490E080E0892B19F082E0F40154CE08
:100EE00020E030E040EA50E4C701B601D8D187FFE6
:100EF00016C0F2018081882391F081E090E0F30137
:100F0000208131812130310511F090E080E0892B82
:100F100031F085E0F401808781E090E0ACCFC7013B
:100F2000B6019F7720E030E040EA50E4B8D187FF77
:100F300021CEF2018081882309F41CCE81E090E06B
:100F4000F30120813181232B11F090E080E0892B87
:100F500009F410CE84E0F4018087F5011582148233
:100F600036CE81E070CEF501C080D180E280F38082
:100F7000848195818130910509F443C0F8F0823075
:100F8000910509F456C0039709F46BC060906D0198
:100F900070906E0180906F01909070019601A70192
:100FA000B301C4017CD187FD27C0609071017090AE
:100FB0007201809073019090740117C060904D0190
:100FC00070904E0180904F01909050019601A701C2
:100FD000B301C40164D187FD0FC0609051017090CE
:100FE000520180905301909054019601A701B301E2
:100FF000C401D8D2181614F463017401C601D701D4
:1010000030CE6090550170905601809057019090BD
:1010100058019601A701B301C40141D187FDECCF6E
:101020006090590170905A0180905B0190905C0132
:10103000DCCF60905D0170905E0180905F019090C8
:1010400060019601A701B301C40129D187FDD4CF66
:1010500060906101709062018090630190906401E2
:10106000C4CF609065017090660180906701909098
:1010700068019601A701B301C40111D187FDBCCF5E
:101080006090690170906A0180906B0190906C0192
:10109000ACCFF50184819581F4CDFB0191838083F0
:1010A00008958ED06093D7027093D8028093D902AE
:1010B0009093DA028AD06093CB027093CC02809333
:1010C000CD029093CE0268D06093D3027093D40285
:1010D0008093D5029093D60264D06093CF02709330
:1010E000D0028093D1029093D20260D06093DB0251
:1010F0007093DC028093DD029093DE025CD06093FB
:10110000DF027093E0028093E1029093E20208957F
:10111000CF92DF92EF92FF92CF936B017C01AC01F3
:101120009B016091D3027091D4028091D50290917D
:10113000D602B5D0C1E0882369F0A701960160917D
:10114000DB027091DC028091DD029091DE02A7D07B
:101150008111C0E08C2FCF91FF90EF90DF90CF9066
:1011600008950F931F938B019C010027112720786E
:101170003F770115110520483F4749F4AB01BC01F9
:101180006F77772781E0452B462B472B09F480E0CA
:101190001F910F910895E5CF60E070E080E89FE730
:1011A000089560E070E080E89FE7089560E070E0F7
:1011B00080E89FEF089560E070E080E89FEF089579
:1011C00060E070E080EC9FEF089560E070E080ECFC
:1011D0009FEF08955058BB27AA270ED092C183D104
:1011E00030F088D120F031F49F3F11F41EF478C123
:1011F0000EF4E095E7FB45C1E92F94D180F3BA17CF
:10120000620773078407950718F071F49EF5C3C150
:101210000EF4E0950B2EBA2FA02D0B01B901900111
:101220000C01CA01A0011124FF27591B99F0593F55
:1012300050F4503E68F11A16F040A22F232F342F9D
:101240004427585FF3CF469537952795A795F040EB
:101250005395C9F77EF41F16BA0B620B730B840B00
:10126000BAF09150A1F0FF0FBB1F661F771F881FB8
:10127000C2F70EC0BA0F621F731F841F48F4879510
:1012800077956795B795F7959E3F08F0B3CF9395FF
:10129000880F08F09927EE0F979587950895CDD080
:1012A00008F481E0089546D188F09F5790F0B92F57
:1012B0009927B751A0F0D1F0660F771F881F991FAB
:1012C0001AF0BA95C9F712C0B13081F064D1B1E01B
:1012D000089561C1672F782F8827B85F39F0B93F2B
:1012E000CCF3869577956795B395D9F73EF49095AD
:1012F0008095709561957F4F8F4F9F4F0895E8942B
:1013000009C097FB3EF490958095709561957F4F4D
:101310008F4F9F4F9923A9F0F92F96E9BB279395FB
:10132000F695879577956795B795F111F8CFFAF40B
:10133000BB0F11F460FF1BC06F5F7F4F8F4F9F4F3C
:1013400016C0882311F096E911C0772321F09EE89A
:10135000872F762F05C0662371F096E8862F70E000
:1013600060E02AF09A95660F771F881FDAF7880FDA
:101370009695879597F90895F7D080F09F3740F4B8
:1013800091110EF009C160E070E080E89FEB0895D4
:1013900026F41B16611D711D811D79C093C0A3D059
:1013A00018F011F0A7D038F49BC0F6C0E92FBAD0DE
:1013B000B0F35523C9F3E7FB62177307840795075A
:1013C000A8F199F3E92FFF2788232AF03197660FB8
:1013D000771F881FDAF7952F5527442332F0915055
:1013E0005040220F331F441FD2F7BB27E91BF50BD8
:1013F000621B730B840BB109C1F222F4620F731FDD
:10140000841FB11D31972AF0660F771F881FBB1FFD
:10141000EFCF915050405AF041F0882332F0660FE0
:10142000771F881F91505040C1F793954BC0869508
:10143000779567959F5FD9F7F8CF990F0008550FFB
:10144000AA0BE0E8FEEF16161706E807F907C0F04A
:1014500012161306E407F50798F0621B730B840B52
:10146000950B39F40A2661F0232B242B252B21F42C
:1014700008950A2609F4A140A6958FEF811D811DCC
:10148000089597F99F6780E870E060E008958823E9
:1014900071F4772321F09850872B762F07C06623AD
:1014A00011F499270DC09051862B70E060E02AF06E
:1014B0009A95660F771F881FDAF7880F969587959C
:1014C00097F908959F3F31F0915020F487957795D3
:1014D0006795B795880F911D9695879597F908950B
:1014E0009FEF80EC089500240A941616170618063C
:1014F0000906089500240A94121613061406050618
:101500000895092E0394000C11F4882352F0BB0FA8
:1015100040F4BF2B11F460FF04C06F5F7F4F8F4F0B
:101520009F4F089557FD9058440F551F59F05F3F46
:1015300071F04795880F97FB991F61F09F3F79F0F5
:1015400087950895121613061406551FF2CF469577
:10155000F1DF08C0161617061806991FF1CF8695F9
:101560007105610508940895E5DFA0F0BEE7B9179D
:1015700088F4BB279F3860F41616B11D672F782FAB
:101580008827985FF7CF869577956795B11D9395D6
:101590009639C8F30895E894BB2766277727CB01CF
:1015A00097F908954ADF08F48FEF08950BD0A9CF7B
:1015B0009ADF28F09FDF18F0952309F062CF90CFD3
:1015C0001124EACFAFDFA0F3959FD1F3950F50E040
:1015D000551F629FF001729FBB27F00DB11D639FE5
:1015E000AA27F00DB11DAA1F649F6627B00DA11D8B
:1015F000661F829F2227B00DA11D621F739FB00D31
:10160000A11D621F839FA00D611D221F749F3327A0
:10161000A00D611D231F849F600D211D822F762F39
:101620006A2F11249F5750408AF0E1F088234AF036
:10163000EE0FFF1FBB1F661F771F881F9150504082
:10164000A9F79E3F510570F01CCFA6CF5F3FECF38A
:10165000983EDCF3869577956795B795F795E7956E
:101660009F5FC1F7FE2B880F911D9695879597F97F
:1016700008951F920F920FB60F9211242F933F934C
:101680008F939F93AF93BF938091A6019091A701F1
:10169000A091A801B091A9013091A50123E0230FE9
:1016A0002D3758F50196A11DB11D2093A5018093FA
:1016B000A6019093A701A093A801B093A9018091DE
:1016C000AA019091AB01A091AC01B091AD0101963E
:1016D000A11DB11D8093AA019093AB01A093AC0111
:1016E000B093AD01BF91AF919F918F913F912F9199
:1016F0000F900FBE0F901F90189526E8230F0296AB
:10170000A11DB11DD2CF789484B5826084BD84B50B
:10171000816084BD85B5826085BD85B5816085BDEC
:10172000EEE6F0E0808181608083E1E8F0E0108205
:10173000808182608083808181608083E0E8F0E046
:10174000808181608083E1EBF0E080818460808330
:10175000E0EBF0E0808181608083EAE7F0E0808167
:1017600084608083808182608083808181608083C7
:101770008081806880831092C10008958E3008F0C7
:101780008E502091760190E4299F9001112487705A
:10179000822B80937C0080917A00806480937A0011
:1017A00080917A0086FDFCCF80917800909179003D
:1017B0000895833081F028F4813099F08230A9F0C7
:1017C00008958730A9F08830C9F08430B1F4809151
:1017D00080008F7D03C0809180008F778093800090
:1017E000089584B58F7784BD089584B58F7DFBCF30
:1017F0008091B0008F778093B00008958091B00001
:101800008F7DF9CFCF93DF9390E0FC01E458FF4F39
:10181000249180579F4FFC0184918823C9F090E068
:10182000880F991FFC01E854FF4FA591B491FC016A
:10183000E255FF4FC591D49161110DC09FB7F89447
:101840008C91209582238C938881282328839FBFA5
:10185000DF91CF910895623051F49FB7F8943C9195
:10186000822F809583238C93E8812E2BEFCF8FB727
:10187000F894EC912E2B2C938FBFEACF1F93CF932C
:10188000DF93282F30E0F901E859FF4F8491F901E7
:10189000E458FF4FD491F901E057FF4FC491CC2396
:1018A000A1F0162F811185DFEC2FF0E0EE0FFF1F66
:1018B000E255FF4FA591B4918FB7F894EC911111B7
:1018C00008C0D095DE23DC938FBFDF91CF911F91AD
:1018D0000895DE2BF8CFCF93DF93282F30E0F90166
:1018E000E859FF4F8491F901E458FF4FD491F90171
:1018F000E057FF4FC491CC2399F081115ADFEC2FB0
:10190000F0E0EE0FFF1FEC55FF4FA591B491EC9165
:10191000ED2381E090E009F480E0DF91CF9108951C
:1019200080E090E0FACFFC01918D228D892F90E02C
:10193000805C9F4F821B91098F7399270895FC014A
:10194000918D828D981731F0828DE80FF11D858D74
:1019500090E008958FEF9FEF0895FC01918D828DA7
:10196000981761F0A28DAE0FBF2FB11D5D968C91BF
:10197000928D9F5F9F73928F90E008958FEF9FEFFE
:101980000895FC01538D448D252F30E0842F90E085
:10199000821B930B541710F0CF960895019708956A
:1019A000FC01A48DA80FB92FB11DA35ABF4F2C91D4
:1019B000848D90E001968F739927848FA689B789CB
:1019C0002C93A089B1898C91837080648C93938DC2
:1019D000848D981306C00288F389E02D80818F7D65
:1019E00080830895CF93DF93EC01888D8823B1F035
:1019F000AA89BB89E889F9898C9185FD03C080811A
:101A000086FD0CC00FB607FCF7CF8C9185FFF2CF97
:101A1000808185FFEDCFCE01C3DFEACFDF91CF918B
:101A20000895EF92FF920F931F93CF93DF93EC01F2
:101A300081E0888F9B8D8C8D98131AC0E889F98975
:101A4000808185FF15C09FB7F894EE89FF89608378
:101A5000E889F98980818370806480839FBF81E0F9
:101A600090E0DF91CF911F910F91FF90EF9008953B
:101A7000F62E0B8D10E00F5F1F4F0F731127E02E16
:101A80008C8D8E110BC00FB607FCFACFE889F9894F
:101A9000808185FFF5CFCE0183DFF2CFEB8DEC0F98
:101AA000FD2FF11DE35AFF4FF0829FB7F8940B8F83
:101AB000EA89FB8980818062D0CFCF92DF92EF925A
:101AC000FF921F93CF93DF93EC016A017B01122FEA
:101AD000E889F98982E08083C11481EED806E104A7
:101AE000F10499F060E079E08DE390E0A7019601C0
:101AF000F5D021503109410951095695479537953F
:101B00002795211580E1380790F0E889F98910823E
:101B100060E874E88EE190E0A7019601DFD02150E3
:101B20003109410951095695479537952795EC8517
:101B3000FD853083EE85FF852083188EEC89FD8935
:101B40001083EA89FB89808180618083EA89FB892F
:101B5000808188608083EA89FB89808180688083B6
:101B6000EA89FB8980818F7D8083DF91CF911F91EE
:101B7000FF90EF90DF90CF9008951F920F920FB6D5
:101B80000F9211242F938F939F93EF93FF93E091E4
:101B9000BE01F091BF018081E091C401F091C501C7
:101BA00082FD1BC090818091C7018F5F8F73209150
:101BB000C801821741F0E091C701F0E0E255FE4F05
:101BC000958F8093C701FF91EF919F918F912F91F6
:101BD0000F900FBE0F901F9018958081F4CF1F9229
:101BE0000F920FB60F9211242F933F934F935F9351
:101BF0006F937F938F939F93AF93BF93EF93FF93D5
:101C00008EEA91E0CDDEFF91EF91BF91AF919F9170
:101C10008F917F916F915F914F913F912F910F9095
:101C20000FBE0F901F901895EEEAF1E0138212821A
:101C300088EE93E0A0E0B0E084839583A683B78329
:101C40008DE791E09183808385EC90E09587848790
:101C500084EC90E09787868780EC90E0918B808B76
:101C600081EC90E0938B828B82EC90E0958B848B5F
:101C700086EC90E0978B868B118E128E138E148ECD
:101C80000895AF92BF92CF92DF92EF92FF920F939F
:101C90001F93CF93DF936C017B018B01040F151F02
:101CA000EB015E01AE18BF08C017D10759F069916A
:101CB000D601ED91FC910190F081E02DC6010995CE
:101CC000892B79F7C501DF91CF911F910F91FF907B
:101CD000EF90DF90CF90BF90AF900895A1E21A2EC1
:101CE000AA1BBB1BFD010DC0AA1FBB1FEE1FFF1FC0
:101CF000A217B307E407F50720F0A21BB30BE40B10
:101D0000F50B661F771F881F991F1A9469F7609556
:101D10007095809590959B01AC01BD01CF01089510
:101D2000EE0FFF1F0590F491E02D0994F894FFCF7A
:101D30000000F041040201000080BF000080BF00ED
:101D40000080BFCDCCCC3D0A28A03BCDCC4C3E0A78
:101D500028A03B0000803F0A28A03B000070420002
:101D60000070C200000020420000803F0000000020
:101D70000001020304000000000000A04200000077
:101D8000000000000000000000000020C200000071
:101D900000000000000000A042000000000000A0C1
:101DA000420000A0C20201950100000000110D4197
:0C1DB0000EC10CF20C930CAD0C9F0C004B
:00000001FF
